{
  "contractName": "IdentityProvider",
  "abi": [
    {
      "constant": true,
      "inputs": [
        {
          "name": "",
          "type": "uint256"
        }
      ],
      "name": "identityProviders",
      "outputs": [
        {
          "name": "identifier",
          "type": "address"
        },
        {
          "name": "ipfsHash",
          "type": "string"
        }
      ],
      "payable": false,
      "stateMutability": "view",
      "type": "function"
    },
    {
      "anonymous": false,
      "inputs": [
        {
          "indexed": false,
          "name": "",
          "type": "address"
        },
        {
          "indexed": false,
          "name": "",
          "type": "string"
        }
      ],
      "name": "AddIP",
      "type": "event"
    },
    {
      "anonymous": false,
      "inputs": [
        {
          "indexed": false,
          "name": "id",
          "type": "uint256"
        }
      ],
      "name": "RemoveIP",
      "type": "event"
    },
    {
      "anonymous": false,
      "inputs": [
        {
          "indexed": false,
          "name": "id",
          "type": "uint256"
        }
      ],
      "name": "UpdateIP",
      "type": "event"
    },
    {
      "constant": false,
      "inputs": [
        {
          "name": "_identifier",
          "type": "address"
        },
        {
          "name": "_ipfsHash",
          "type": "string"
        }
      ],
      "name": "addIdentityProvider",
      "outputs": [
        {
          "name": "",
          "type": "uint56"
        }
      ],
      "payable": false,
      "stateMutability": "nonpayable",
      "type": "function"
    },
    {
      "constant": false,
      "inputs": [
        {
          "name": "_id",
          "type": "uint256"
        }
      ],
      "name": "removeIdentityProvider",
      "outputs": [],
      "payable": false,
      "stateMutability": "nonpayable",
      "type": "function"
    },
    {
      "constant": false,
      "inputs": [
        {
          "name": "_id",
          "type": "uint256"
        },
        {
          "name": "_identifier",
          "type": "address"
        },
        {
          "name": "ipfsHash",
          "type": "string"
        }
      ],
      "name": "updateIdentityProvider",
      "outputs": [],
      "payable": false,
      "stateMutability": "nonpayable",
      "type": "function"
    }
  ],
  "bytecode": "0x608060405234801561001057600080fd5b506103e2806100206000396000f3fe608060405234801561001057600080fd5b506004361061004c5760003560e01c80633d4790d8146100515780636f388d05146100f457806384dd650b146101ce578063b4ef4e55146101fc575b600080fd5b6100f26004803603606081101561006757600080fd5b8101908080359060200190929190803573ffffffffffffffffffffffffffffffffffffffff169060200190929190803590602001906401000000008111156100ae57600080fd5b8201836020820111156100c057600080fd5b803590602001918460018302840111640100000000831117156100e257600080fd5b90919293919293905050506102bb565b005b6101206004803603602081101561010a57600080fd5b81019080803590602001909291905050506102c1565b604051808373ffffffffffffffffffffffffffffffffffffffff1673ffffffffffffffffffffffffffffffffffffffff16815260200180602001828103825283818151815260200191508051906020019080838360005b83811015610192578082015181840152602081019050610177565b50505050905090810190601f1680156101bf5780820380516001836020036101000a031916815260200191505b50935050505060405180910390f35b6101fa600480360360208110156101e457600080fd5b81019080803590602001909291905050506103aa565b005b6102936004803603604081101561021257600080fd5b81019080803573ffffffffffffffffffffffffffffffffffffffff1690602001909291908035906020019064010000000081111561024f57600080fd5b82018360208201111561026157600080fd5b8035906020019184600183028401116401000000008311171561028357600080fd5b90919293919293905050506103ad565b604051808266ffffffffffffff1666ffffffffffffff16815260200191505060405180910390f35b50505050565b600081815481106102ce57fe5b90600052602060002090600202016000915090508060000160009054906101000a900473ffffffffffffffffffffffffffffffffffffffff1690806001018054600181600116156101000203166002900480601f0160208091040260200160405190810160405280929190818152602001828054600181600116156101000203166002900480156103a05780601f10610375576101008083540402835291602001916103a0565b820191906000526020600020905b81548152906001019060200180831161038357829003601f168201915b5050505050905082565b50565b6000939250505056fea165627a7a7230582007cadb5aab2834f0c0b6bf44616c3160c213a1550a10276c37bbfa4ec651e5c50029",
  "source": "pragma solidity >=0.5.8 <=0.5.11;\r\n\r\n/**\r\n * @dev Identity provider contracts manages identity providers structures and restricts control only to owner\r\n */\r\ncontract IdentityProvider {\r\n    struct IP {\r\n        address identifier;\r\n        string ipfsHash;\r\n    }\r\n\r\n    IP[] public identityProviders;\r\n\r\n    event AddIP(address, string);\r\n    event RemoveIP(uint id);\r\n    event UpdateIP(uint id);\r\n\r\n\r\n    modifier onlyOwner() {_;}\r\n\r\n    function addIdentityProvider(address _identifier, string calldata _ipfsHash) external onlyOwner returns(uint56) {}\r\n\r\n    function removeIdentityProvider(uint _id) external onlyOwner {}\r\n\r\n    function updateIdentityProvider(uint _id, address _identifier, string calldata ipfsHash) external onlyOwner {}\r\n}",
  "sourcePath": "D:\\Facultate\\MASTER\\TAIP\\TAIP-NaturallyDigital\\Ethereum\\contracts\\IdentityProvider.sol",
  "compiler": {
    "name": "solc",
    "version": "0.5.8+commit.23d335f2.Emscripten.clang"
  },
  "schemaVersion": "3.0.16",
  "updatedAt": "2019-10-28T18:22:52.755Z",
  "devdoc": {
    "details": "Identity provider contracts manages identity providers structures and restricts control only to owner\r",
    "methods": {}
  },
  "userdoc": {
    "methods": {}
  }
}