{
  "contractName": "IdentityProvider",
  "abi": [
    {
      "anonymous": false,
      "inputs": [
        {
          "indexed": false,
          "internalType": "address",
          "name": "identifier",
          "type": "address"
        },
        {
          "indexed": false,
          "internalType": "string",
          "name": "ipfsHash",
          "type": "string"
        }
      ],
      "name": "AddIP",
      "type": "event"
    },
    {
      "anonymous": false,
      "inputs": [
        {
          "indexed": false,
          "internalType": "address",
          "name": "account",
          "type": "address"
        }
      ],
      "name": "Paused",
      "type": "event"
    },
    {
      "anonymous": false,
      "inputs": [
        {
          "indexed": false,
          "internalType": "uint256",
          "name": "id",
          "type": "uint256"
        }
      ],
      "name": "RemoveIP",
      "type": "event"
    },
    {
      "anonymous": false,
      "inputs": [
        {
          "indexed": false,
          "internalType": "address",
          "name": "account",
          "type": "address"
        }
      ],
      "name": "Unpaused",
      "type": "event"
    },
    {
      "anonymous": false,
      "inputs": [
        {
          "indexed": false,
          "internalType": "uint256",
          "name": "id",
          "type": "uint256"
        }
      ],
      "name": "UpdateIP",
      "type": "event"
    },
    {
      "constant": true,
      "inputs": [
        {
          "internalType": "uint256",
          "name": "",
          "type": "uint256"
        }
      ],
      "name": "identityProviders",
      "outputs": [
        {
          "internalType": "address",
          "name": "identifier",
          "type": "address"
        },
        {
          "internalType": "string",
          "name": "ipfsHash",
          "type": "string"
        }
      ],
      "payable": false,
      "stateMutability": "view",
      "type": "function"
    },
    {
      "constant": true,
      "inputs": [],
      "name": "owner",
      "outputs": [
        {
          "internalType": "address",
          "name": "",
          "type": "address"
        }
      ],
      "payable": false,
      "stateMutability": "view",
      "type": "function"
    },
    {
      "constant": false,
      "inputs": [],
      "name": "pause",
      "outputs": [],
      "payable": false,
      "stateMutability": "nonpayable",
      "type": "function"
    },
    {
      "constant": true,
      "inputs": [],
      "name": "paused",
      "outputs": [
        {
          "internalType": "bool",
          "name": "",
          "type": "bool"
        }
      ],
      "payable": false,
      "stateMutability": "view",
      "type": "function"
    },
    {
      "constant": false,
      "inputs": [
        {
          "internalType": "address",
          "name": "newOwner",
          "type": "address"
        }
      ],
      "name": "transferOwnership",
      "outputs": [],
      "payable": false,
      "stateMutability": "nonpayable",
      "type": "function"
    },
    {
      "constant": false,
      "inputs": [],
      "name": "unpause",
      "outputs": [],
      "payable": false,
      "stateMutability": "nonpayable",
      "type": "function"
    },
    {
      "constant": false,
      "inputs": [
        {
          "internalType": "address",
          "name": "_identifier",
          "type": "address"
        },
        {
          "internalType": "string",
          "name": "_ipfsHash",
          "type": "string"
        }
      ],
      "name": "addIdentityProvider",
      "outputs": [
        {
          "internalType": "uint256",
          "name": "",
          "type": "uint256"
        }
      ],
      "payable": false,
      "stateMutability": "nonpayable",
      "type": "function"
    },
    {
      "constant": false,
      "inputs": [
        {
          "internalType": "uint256",
          "name": "_id",
          "type": "uint256"
        }
      ],
      "name": "removeIdentityProvider",
      "outputs": [],
      "payable": false,
      "stateMutability": "nonpayable",
      "type": "function"
    },
    {
      "constant": false,
      "inputs": [
        {
          "internalType": "uint256",
          "name": "_id",
          "type": "uint256"
        },
        {
          "internalType": "address",
          "name": "_identifier",
          "type": "address"
        },
        {
          "internalType": "string",
          "name": "_ipfsHash",
          "type": "string"
        }
      ],
      "name": "updateIdentityProvider",
      "outputs": [],
      "payable": false,
      "stateMutability": "nonpayable",
      "type": "function"
    },
    {
      "constant": true,
      "inputs": [],
      "name": "getIdentityProviderNumber",
      "outputs": [
        {
          "internalType": "uint256",
          "name": "",
          "type": "uint256"
        }
      ],
      "payable": false,
      "stateMutability": "view",
      "type": "function"
    },
    {
      "constant": true,
      "inputs": [
        {
          "internalType": "address",
          "name": "_ip",
          "type": "address"
        }
      ],
      "name": "isIdentityProviderCreated",
      "outputs": [
        {
          "internalType": "bool",
          "name": "",
          "type": "bool"
        }
      ],
      "payable": false,
      "stateMutability": "view",
      "type": "function"
    },
    {
      "constant": true,
      "inputs": [
        {
          "internalType": "uint256",
          "name": "_index",
          "type": "uint256"
        }
      ],
      "name": "getIdentityProvider",
      "outputs": [
        {
          "internalType": "address",
          "name": "account",
          "type": "address"
        },
        {
          "internalType": "string",
          "name": "ipfsHash",
          "type": "string"
        }
      ],
      "payable": false,
      "stateMutability": "view",
      "type": "function"
    }
  ],
  "bytecode": "0x60806040526000805460ff60a01b196001600160a01b0319909116331716905561107c8061002e6000396000f3fe608060405234801561001057600080fd5b50600436106100b45760003560e01c806384dd650b1161007157806384dd650b146102345780638da5cb5b14610251578063b4ef4e5514610275578063e09c0a03146102f5578063ee8e93561461031b578063f2fde38b14610338576100b4565b806328266d3c146100b95780633d4790d8146100d35780633f4ba83a1461015a5780635c975abb146101625780636f388d051461017e5780638456cb591461022c575b600080fd5b6100c161035e565b60408051918252519081900360200190f35b610158600480360360608110156100e957600080fd5b8135916001600160a01b036020820135169181019060608101604082013564010000000081111561011957600080fd5b82018360208201111561012b57600080fd5b8035906020019184600183028401116401000000008311171561014d57600080fd5b50909250905061036e565b005b6101586104b6565b61016a6105a1565b604080519115158252519081900360200190f35b61019b6004803603602081101561019457600080fd5b50356105b1565b60405180836001600160a01b03166001600160a01b0316815260200180602001828103825283818151815260200191508051906020019080838360005b838110156101f05781810151838201526020016101d8565b50505050905090810190601f16801561021d5780820380516001836020036101000a031916815260200191505b50935050505060405180910390f35b610158610673565b6101586004803603602081101561024a57600080fd5b5035610761565b6102596108dc565b604080516001600160a01b039092168252519081900360200190f35b6100c16004803603604081101561028b57600080fd5b6001600160a01b0382351691908101906040810160208201356401000000008111156102b657600080fd5b8201836020820111156102c857600080fd5b803590602001918460018302840111640100000000831117156102ea57600080fd5b5090925090506108eb565b61016a6004803603602081101561030b57600080fd5b50356001600160a01b0316610b37565b61019b6004803603602081101561033157600080fd5b5035610b4a565b6101586004803603602081101561034e57600080fd5b50356001600160a01b0316610c8a565b6000610368610d5b565b90505b90565b6000610378610d5b565b90508085106103be576040805162461bcd60e51b815260206004820152600d60248201526c092dcecc2d8d2c840d2dcc8caf609b1b604482015290519081900360640190fd5b6000600186815481106103cd57fe5b600091825260208220915460029190910290910191506001600160a01b0316331480610402575080546001600160a01b031633145b610453576040805162461bcd60e51b815260206004820152601b60248201527f4f6e6c79206f776e6572206f722049502063616e207570646174650000000000604482015290519081900360640190fd5b6040805187815290517f147d93cafe8a4f74e7041fed9a3c4a59b9147c6e923fb45f188379856f85ec849181900360200190a180546001600160a01b0319166001600160a01b0386161781556104ad600182018585610dc6565b50505050505050565b600054600160a01b900460ff1661050b576040805162461bcd60e51b815260206004820152601460248201527314185d5cd8589b194e881b9bdd081c185d5cd95960621b604482015290519081900360640190fd5b6000546001600160a01b0316331461055f576040805162461bcd60e51b815260206004820152601260248201527127b7363c9037bbb732b91030b1b1b2b9b99760711b604482015290519081900360640190fd5b6000805460ff60a01b191690556040805133815290517f5db9ee0a495bf2e6ff9c91a7834c1ba4fdd244a5e8aa4e537bd38aeae4b073aa9181900360200190a1565b600054600160a01b900460ff1690565b600181815481106105be57fe5b600091825260209182902060029182020180546001808301805460408051601f600019958416156101000295909501909216969096049283018790048702810187019095528185526001600160a01b03909216955091939091908301828280156106695780601f1061063e57610100808354040283529160200191610669565b820191906000526020600020905b81548152906001019060200180831161064c57829003601f168201915b5050505050905082565b600054600160a01b900460ff16156106c5576040805162461bcd60e51b815260206004820152601060248201526f14185d5cd8589b194e881c185d5cd95960821b604482015290519081900360640190fd5b6000546001600160a01b03163314610719576040805162461bcd60e51b815260206004820152601260248201527127b7363c9037bbb732b91030b1b1b2b9b99760711b604482015290519081900360640190fd5b6000805460ff60a01b1916600160a01b1790556040805133815290517f62e78cea01bee320cd4e420270b5ea74000d11b0c9f74754ebdbfc544b05a2589181900360200190a1565b6000546001600160a01b031633146107b5576040805162461bcd60e51b815260206004820152601260248201527127b7363c9037bbb732b91030b1b1b2b9b99760711b604482015290519081900360640190fd5b60006107bf610d5b565b9050808210610805576040805162461bcd60e51b815260206004820152600d60248201526c092dcecc2d8d2c840d2dcc8caf609b1b604482015290519081900360640190fd5b6040805183815290517fb48fdf3f028b42ae7a4e52007fd20f3e8e42445278329ccde0001706edef3b8a9181900360200190a160018111156108c45760018082038154811061085057fe5b90600052602060002090600202016001838154811061086b57fe5b600091825260209091208254600292830290910180546001600160a01b0319166001600160a01b039092169190911781556001808401805492936108c093838601936000199082161561010002011604610e44565b5050505b60018054906108d7906000198301610eb9565b505050565b6000546001600160a01b031681565b600080546001600160a01b03163314610940576040805162461bcd60e51b815260206004820152601260248201527127b7363c9037bbb732b91030b1b1b2b9b99760711b604482015290519081900360640190fd5b6001600160a01b0384166109855760405162461bcd60e51b81526004018080602001828103825260268152602001806110016026913960400191505060405180910390fd5b61098e84610d61565b156109ca5760405162461bcd60e51b81526004018080602001828103825260218152602001806110276021913960400191505060405180910390fd5b6109d2610ee5565b6040518060400160405280866001600160a01b0316815260200185858080601f0160208091040260200160405190810160405280939291908181526020018383808284376000920191909152505050915250604080516001600160a01b0388168152602081018281529181018690529192507f68ec2b9944c5fba8256d4113e96c33146ca2d103a04bc7eac7bd68ddb50a33ea9187918791879160608201848480828437600083820152604051601f909101601f1916909201829003965090945050505050a16001805480820180835560009290925282517fb10e2d527612073b26eecdfd717e6a320cf44b4afac2b0732d9fcbe2b7fa0cf6600290920291820180546001600160a01b0319166001600160a01b0390921691909117815560208085015180518694610b2a937fb10e2d527612073b26eecdfd717e6a320cf44b4afac2b0732d9fcbe2b7fa0cf7909101920190610efd565b5050509150509392505050565b6000610b4282610d61565b90505b919050565b600060606000610b58610d5b565b9050808410610b9e576040805162461bcd60e51b815260206004820152600d60248201526c092dcecc2d8d2c840d2dcc8caf609b1b604482015290519081900360640190fd5b60018481548110610bab57fe5b6000918252602090912060029091020154600180546001600160a01b0390921694509085908110610bd857fe5b90600052602060002090600202016001018054600181600116156101000203166002900480601f016020809104026020016040519081016040528092919081815260200182805460018160011615610100020316600290048015610c7d5780601f10610c5257610100808354040283529160200191610c7d565b820191906000526020600020905b815481529060010190602001808311610c6057829003601f168201915b5050505050915050915091565b6000546001600160a01b03163314610cde576040805162461bcd60e51b815260206004820152601260248201527127b7363c9037bbb732b91030b1b1b2b9b99760711b604482015290519081900360640190fd5b6001600160a01b038116610d39576040805162461bcd60e51b815260206004820152601960248201527f4164647265737320302063616e6e6f74206265206f776e657200000000000000604482015290519081900360640190fd5b600080546001600160a01b0319166001600160a01b0392909216919091179055565b60015490565b6000805b610d6d610d5b565b811015610dbd57826001600160a01b031660018281548110610d8b57fe5b60009182526020909120600290910201546001600160a01b03161415610db5576001915050610b45565b600101610d65565b50600092915050565b828054600181600116156101000203166002900490600052602060002090601f016020900481019282601f10610e075782800160ff19823516178555610e34565b82800160010185558215610e34579182015b82811115610e34578235825591602001919060010190610e19565b50610e40929150610f6b565b5090565b828054600181600116156101000203166002900490600052602060002090601f016020900481019282601f10610e7d5780548555610e34565b82800160010185558215610e3457600052602060002091601f016020900482015b82811115610e34578254825591600101919060010190610e9e565b8154818355818111156108d7576002028160020283600052602060002091820191016108d79190610f85565b60408051808201909152600081526060602082015290565b828054600181600116156101000203166002900490600052602060002090601f016020900481019282601f10610f3e57805160ff1916838001178555610e34565b82800160010185558215610e34579182015b82811115610e34578251825591602001919060010190610f50565b61036b91905b80821115610e405760008155600101610f71565b61036b91905b80821115610e405780546001600160a01b03191681556000610fb06001830182610fb9565b50600201610f8b565b50805460018160011615610100020316600290046000825580601f10610fdf5750610ffd565b601f016020900490600052602060002090810190610ffd9190610f6b565b5056fe496e76616c6964206964656e746974792070726f7669646572202d2061646472657373283029496e64656e746974792070726f766964657220616c726561647920657869737473a265627a7a72315820388b53a917295cf9947a5e457949bda5aed68ac0766689a7c56715c6b1e9a43564736f6c634300050c0032",
  "source": "pragma solidity >=0.5.8 <=0.5.12;\r\n\r\nimport \"./Pausable.sol\";\r\n\r\n/**\r\n * @dev Identity provider contracts manages identity providers structures and restricts control only to owner\r\n */\r\ncontract IdentityProvider is Pausable {\r\n    struct IP {\r\n        address identifier;\r\n        string ipfsHash;\r\n    }\r\n\r\n    IP[] public identityProviders;\r\n\r\n    event AddIP(address identifier, string ipfsHash);\r\n    event RemoveIP(uint id);\r\n    event UpdateIP(uint id);\r\n\r\n    function addIdentityProvider(address _identifier, string calldata _ipfsHash) external onlyOwner returns(uint256) {\r\n        require(_identifier != address(0), \"Invalid identity provider - address(0)\");\r\n        require(!_identityProviderExists(_identifier), \"Indentity provider already exists\");\r\n\r\n        IP memory ip = IP({identifier: _identifier, ipfsHash: _ipfsHash});\r\n        emit AddIP(_identifier, _ipfsHash);\r\n        return identityProviders.push(ip);\r\n    }\r\n\r\n    function removeIdentityProvider(uint _id) external onlyOwner {\r\n        uint length = _identityProviderNumber();\r\n        require(_id >= 0 && _id < length, \"Invalid index\");\r\n\r\n        emit RemoveIP(_id);\r\n        if(length > 1) {\r\n            identityProviders[_id] = identityProviders[length - 1];\r\n        }\r\n        identityProviders.length--;\r\n    }\r\n\r\n    function updateIdentityProvider(uint _id, address _identifier, string calldata _ipfsHash) external {\r\n        uint length = _identityProviderNumber();\r\n        require(_id >= 0 && _id < length, \"Invalid index\");\r\n        IP storage ip = identityProviders[_id];\r\n        require(msg.sender == owner || msg.sender == ip.identifier, \"Only owner or IP can update\");\r\n\r\n        emit UpdateIP(_id);\r\n        ip.identifier = _identifier;\r\n        ip.ipfsHash = _ipfsHash;\r\n    }\r\n\r\n    function getIdentityProviderNumber() external view returns (uint256) {\r\n        return _identityProviderNumber();\r\n    }\r\n\r\n    function isIdentityProviderCreated(address _ip) external view returns (bool) {\r\n        return _identityProviderExists(_ip);\r\n    }\r\n\r\n    function _identityProviderNumber() internal view returns (uint256) {\r\n        return identityProviders.length;\r\n    }\r\n\r\n    function _identityProviderExists(address _ip) internal view returns (bool) {\r\n        for(uint i = 0; i < _identityProviderNumber(); i++) {\r\n            if(identityProviders[i].identifier == _ip) {\r\n                return true;\r\n            }\r\n        }\r\n        return false;\r\n    }\r\n\r\n    function getIdentityProvider(uint _index) external view returns (address account, string memory ipfsHash) {\r\n         uint length = _identityProviderNumber();\r\n        require(_index >= 0 && _index < length, \"Invalid index\");\r\n\r\n        account = identityProviders[_index].identifier;\r\n        ipfsHash = identityProviders[_index].ipfsHash;\r\n    }\r\n}",
  "sourcePath": "D:\\Facultate\\MASTER\\TAIP\\TAIP-NaturallyDigital\\Ethereum\\contracts\\IdentityProvider.sol",
  "compiler": {
    "name": "solc",
    "version": "0.5.12+commit.7709ece9.Emscripten.clang"
  },
  "schemaVersion": "3.0.16",
  "updatedAt": "2019-12-04T06:30:03.072Z",
  "devdoc": {
    "details": "Identity provider contracts manages identity providers structures and restricts control only to owner",
    "methods": {
      "pause()": {
        "details": "Called by a pauser to pause, triggers stopped state."
      },
      "paused()": {
        "details": "Returns true if the contract is paused, and false otherwise."
      },
      "unpause()": {
        "details": "Called by a pauser to unpause, returns to normal state."
      }
    }
  },
  "userdoc": {
    "methods": {}
  }
}