{
  "contractName": "Proxy",
  "abi": [
    {
      "inputs": [],
      "payable": false,
      "stateMutability": "nonpayable",
      "type": "constructor"
    },
    {
      "payable": true,
      "stateMutability": "payable",
      "type": "fallback"
    },
    {
      "constant": false,
      "inputs": [
        {
          "internalType": "address",
          "name": "_newOwner",
          "type": "address"
        }
      ],
      "name": "transferProxyOwnership",
      "outputs": [],
      "payable": false,
      "stateMutability": "nonpayable",
      "type": "function"
    },
    {
      "constant": false,
      "inputs": [
        {
          "internalType": "address",
          "name": "_implementation",
          "type": "address"
        }
      ],
      "name": "upgradeTo",
      "outputs": [],
      "payable": false,
      "stateMutability": "nonpayable",
      "type": "function"
    },
    {
      "constant": true,
      "inputs": [],
      "name": "implementation",
      "outputs": [
        {
          "internalType": "address",
          "name": "impl",
          "type": "address"
        }
      ],
      "payable": false,
      "stateMutability": "view",
      "type": "function"
    },
    {
      "constant": true,
      "inputs": [],
      "name": "proxyOwner",
      "outputs": [
        {
          "internalType": "address",
          "name": "owner",
          "type": "address"
        }
      ],
      "payable": false,
      "stateMutability": "view",
      "type": "function"
    }
  ],
  "bytecode": "0x608060405234801561001057600080fd5b50610023336001600160e01b0361002816565b61005d565b604080517f6e61747572616c6c796469676974616c2e70726f78792e6f776e6572000000008152905190819003601c01902055565b6104698061006c6000396000f3fe60806040526004361061003f5760003560e01c8063025313a2146100cb5780633659cfe6146100fc5780635c60da1b14610131578063f1739cae14610146575b6000610049610179565b90506001600160a01b0381166100a6576040805162461bcd60e51b815260206004820152601f60248201527f496e76616c696420696d706c656d656e746174696f6e20616464726573737300604482015290519081900360640190fd5b60405136600082376000803683855af43d806000843e8180156100c7578184f35b8184fd5b3480156100d757600080fd5b506100e061019c565b604080516001600160a01b039092168252519081900360200190f35b34801561010857600080fd5b5061012f6004803603602081101561011f57600080fd5b50356001600160a01b03166101d2565b005b34801561013d57600080fd5b506100e0610179565b34801561015257600080fd5b5061012f6004803603602081101561016957600080fd5b50356001600160a01b0316610235565b600080604051808061040e60279139604051908190036027019020549392505050565b604080517f6e61747572616c6c796469676974616c2e70726f78792e6f776e6572000000008152905190819003601c0190205490565b6101da61019c565b6001600160a01b0316336001600160a01b0316146102295760405162461bcd60e51b815260040180806020018281038252602e8152602001806103e0602e913960400191505060405180910390fd5b610232816102f0565b50565b61023d61019c565b6001600160a01b0316336001600160a01b03161461028c5760405162461bcd60e51b815260040180806020018281038252602e8152602001806103e0602e913960400191505060405180910390fd5b6001600160a01b0381166102e7576040805162461bcd60e51b815260206004820152601f60248201527f496e76616c6964206e65772070726f7879206f776e6572206164647265737300604482015290519081900360640190fd5b6102328161035a565b60006102fa610179565b9050816001600160a01b0316816001600160a01b0316141561034d5760405162461bcd60e51b815260040180806020018281038252602e8152602001806103b2602e913960400191505060405180910390fd5b6103568261038f565b5050565b604080517f6e61747572616c6c796469676974616c2e70726f78792e6f776e6572000000008152905190819003601c01902055565b6000604051808061040e6027913960405190819003602701902092909255505056fe4e657720696d706c656d656e746174696f6e20616464726573732073686f756c6420626520646966666572656e7441636365737320636f6e74726f6c207265737472696374696f6e206f6e6c7920746f2070726f7879206f776e65726e61747572616c6c796469676974616c2e696d706c656d656e746174696f6e2e61646472657373a265627a7a72315820165bc720e13d0f54cb6d15cc7ee8a48c2c16e12b640f760666151aadef81e91664736f6c634300050c0032",
  "source": "pragma solidity >=0.5.8 <=0.5.12;\r\n\r\n/**\r\n * @dev Implements unstructured storage proxy pattern\r\n */\r\ncontract Proxy {\r\n\r\n    // Storage position of the address of the current implementation\r\n    bytes32 private constant implementationPosition = keccak256(\"naturallydigital.implementation.address\");\r\n\r\n    // Storage position of the owner of the contract\r\n    bytes32 private constant proxyOwnerPosition = keccak256(\"naturallydigital.proxy.owner\");\r\n\r\n    /**\r\n    * @dev Throws if called by any account other than the owner.\r\n    */\r\n    modifier onlyProxyOwner() {\r\n        require (msg.sender == proxyOwner(), \"Access control restriction only to proxy owner\");\r\n        _;\r\n    }\r\n\r\n    /**\r\n    * @dev the constructor sets owner\r\n    */\r\n    constructor() public {\r\n        _setUpgradeabilityOwner(msg.sender);\r\n    }\r\n\r\n    /**\r\n     * @dev Allows the current owner to transfer ownership\r\n     * @param _newOwner The address to transfer ownership to\r\n     */\r\n    function transferProxyOwnership(address _newOwner)\r\n        public onlyProxyOwner\r\n    {\r\n        require(_newOwner != address(0), \"Invalid new proxy owner address\");\r\n        _setUpgradeabilityOwner(_newOwner);\r\n    }\r\n\r\n    /**\r\n     * @dev Allows the proxy owner to upgrade the implementation\r\n     * @param _implementation address of the new implementation\r\n     */\r\n    function upgradeTo(address _implementation)\r\n        public onlyProxyOwner\r\n    {\r\n        _upgradeTo(_implementation);\r\n    }\r\n\r\n    /**\r\n     * @dev Tells the address of the current implementation\r\n     * @return address of the current implementation\r\n     */\r\n    function implementation() public view returns (address impl) {\r\n        bytes32 position = implementationPosition;\r\n        assembly {\r\n            impl := sload(position)\r\n        }\r\n    }\r\n\r\n    /**\r\n     * @dev Tells the address of the owner\r\n     * @return the address of the owner\r\n     */\r\n    function proxyOwner() public view returns (address owner) {\r\n        bytes32 position = proxyOwnerPosition;\r\n        assembly {\r\n            owner := sload(position)\r\n        }\r\n    }\r\n\r\n    /**\r\n     * @dev Sets the address of the current implementation\r\n     * @param _newImplementation address of the new implementation\r\n     */\r\n    function _setImplementation(address _newImplementation)\r\n        internal\r\n    {\r\n        bytes32 position = implementationPosition;\r\n        assembly {\r\n            sstore(position, _newImplementation)\r\n        }\r\n    }\r\n\r\n    /**\r\n     * @dev Upgrades the implementation address\r\n     * @param _newImplementation address of the new implementation\r\n     */\r\n    function _upgradeTo(address _newImplementation) internal {\r\n        address currentImplementation = implementation();\r\n        require(currentImplementation != _newImplementation, \"New implementation address should be different\");\r\n        _setImplementation(_newImplementation);\r\n    }\r\n\r\n    /**\r\n     * @dev Sets the address of the owner\r\n     */\r\n    function _setUpgradeabilityOwner(address _newProxyOwner) internal {\r\n        bytes32 position = proxyOwnerPosition;\r\n        assembly {\r\n            sstore(position, _newProxyOwner)\r\n        }\r\n    }\r\n\r\n    /**\r\n    * @dev Fallback function allowing to perform a delegatecall to the given implementation.\r\n    * This function will return whatever the implementation call returns\r\n    */\r\n    function () payable external {\r\n        address _impl = implementation();\r\n        require(_impl != address(0), \"Invalid implementation addresss\");\r\n\r\n        assembly {\r\n            let ptr := mload(0x40)\r\n            calldatacopy(ptr, 0, calldatasize)\r\n            let result := delegatecall(gas, _impl, ptr, calldatasize, 0, 0)\r\n            let size := returndatasize\r\n            returndatacopy(ptr, 0, size)\r\n\r\n            switch result\r\n                case 0 { revert(ptr, size) }\r\n                default { return(ptr, size) }\r\n        }\r\n    }\r\n}",
  "sourcePath": "D:\\Facultate\\MASTER\\TAIP\\TAIP-NaturallyDigital\\Ethereum\\contracts\\Proxy.sol",
  "compiler": {
    "name": "solc",
    "version": "0.5.12+commit.7709ece9.Emscripten.clang"
  },
  "schemaVersion": "3.0.16",
  "updatedAt": "2019-12-09T19:19:49.853Z",
  "devdoc": {
    "details": "Implements unstructured storage proxy pattern",
    "methods": {
      "constructor": {
        "details": "the constructor sets owner"
      },
      "implementation()": {
        "details": "Tells the address of the current implementation",
        "return": "address of the current implementation"
      },
      "proxyOwner()": {
        "details": "Tells the address of the owner",
        "return": "the address of the owner"
      },
      "transferProxyOwnership(address)": {
        "details": "Allows the current owner to transfer ownership",
        "params": {
          "_newOwner": "The address to transfer ownership to"
        }
      },
      "upgradeTo(address)": {
        "details": "Allows the proxy owner to upgrade the implementation",
        "params": {
          "_implementation": "address of the new implementation"
        }
      }
    }
  },
  "userdoc": {
    "methods": {}
  }
}