{
  "contractName": "UserIdentity",
  "abi": [
    {
      "constant": false,
      "inputs": [],
      "name": "unpause",
      "outputs": [],
      "payable": false,
      "stateMutability": "nonpayable",
      "type": "function"
    },
    {
      "constant": true,
      "inputs": [],
      "name": "paused",
      "outputs": [
        {
          "name": "",
          "type": "bool"
        }
      ],
      "payable": false,
      "stateMutability": "view",
      "type": "function"
    },
    {
      "constant": true,
      "inputs": [
        {
          "name": "",
          "type": "address"
        },
        {
          "name": "",
          "type": "uint256"
        }
      ],
      "name": "userIdentities",
      "outputs": [
        {
          "name": "ipfsHash",
          "type": "string"
        },
        {
          "name": "identityProvider",
          "type": "address"
        }
      ],
      "payable": false,
      "stateMutability": "view",
      "type": "function"
    },
    {
      "constant": false,
      "inputs": [],
      "name": "pause",
      "outputs": [],
      "payable": false,
      "stateMutability": "nonpayable",
      "type": "function"
    },
    {
      "anonymous": false,
      "inputs": [
        {
          "indexed": false,
          "name": "",
          "type": "address"
        },
        {
          "indexed": false,
          "name": "",
          "type": "string"
        },
        {
          "indexed": false,
          "name": "",
          "type": "address"
        }
      ],
      "name": "AddIdentity",
      "type": "event"
    },
    {
      "anonymous": false,
      "inputs": [
        {
          "indexed": false,
          "name": "",
          "type": "address"
        },
        {
          "indexed": false,
          "name": "",
          "type": "string"
        },
        {
          "indexed": false,
          "name": "",
          "type": "address"
        }
      ],
      "name": "RemoveIdentity",
      "type": "event"
    },
    {
      "anonymous": false,
      "inputs": [
        {
          "indexed": false,
          "name": "account",
          "type": "address"
        }
      ],
      "name": "Paused",
      "type": "event"
    },
    {
      "anonymous": false,
      "inputs": [
        {
          "indexed": false,
          "name": "account",
          "type": "address"
        }
      ],
      "name": "Unpaused",
      "type": "event"
    },
    {
      "constant": false,
      "inputs": [
        {
          "name": "_ipfsHash",
          "type": "string"
        },
        {
          "name": "_identityProvider",
          "type": "address"
        }
      ],
      "name": "addIdentity",
      "outputs": [],
      "payable": false,
      "stateMutability": "nonpayable",
      "type": "function"
    },
    {
      "constant": false,
      "inputs": [
        {
          "name": "_ipfsHash",
          "type": "string"
        }
      ],
      "name": "removeIdentity",
      "outputs": [],
      "payable": false,
      "stateMutability": "nonpayable",
      "type": "function"
    }
  ],
  "bytecode": "0x608060405260008060006101000a81548160ff0219169083151502179055506106ef8061002d6000396000f3fe608060405234801561001057600080fd5b50600436106100625760003560e01c80633f4ba83a146100675780635c975abb1461007157806382e10e7f146100935780638456cb591461018d578063ca364a3a14610197578063f0113b4814610210575b600080fd5b61006f6102a9565b005b6100796103a9565b604051808215151515815260200191505060405180910390f35b6100df600480360360408110156100a957600080fd5b81019080803573ffffffffffffffffffffffffffffffffffffffff169060200190929190803590602001909291905050506103bf565b60405180806020018373ffffffffffffffffffffffffffffffffffffffff1673ffffffffffffffffffffffffffffffffffffffff168152602001828103825284818151815260200191508051906020019080838360005b83811015610151578082015181840152602081019050610136565b50505050905090810190601f16801561017e5780820380516001836020036101000a031916815260200191505b50935050505060405180910390f35b6101956104b5565b005b61020e600480360360208110156101ad57600080fd5b81019080803590602001906401000000008111156101ca57600080fd5b8201836020820111156101dc57600080fd5b803590602001918460018302840111640100000000831117156101fe57600080fd5b90919293919293905050506105b6565b005b6102a76004803603604081101561022657600080fd5b810190808035906020019064010000000081111561024357600080fd5b82018360208201111561025557600080fd5b8035906020019184600183028401116401000000008311171561027757600080fd5b9091929391929390803573ffffffffffffffffffffffffffffffffffffffff16906020019092919050505061063c565b005b6000809054906101000a900460ff1661032a576040517f08c379a00000000000000000000000000000000000000000000000000000000081526004018080602001828103825260148152602001807f5061757361626c653a206e6f742070617573656400000000000000000000000081525060200191505060405180910390fd5b60008060006101000a81548160ff0219169083151502179055507f5db9ee0a495bf2e6ff9c91a7834c1ba4fdd244a5e8aa4e537bd38aeae4b073aa33604051808273ffffffffffffffffffffffffffffffffffffffff1673ffffffffffffffffffffffffffffffffffffffff16815260200191505060405180910390a1565b60008060009054906101000a900460ff16905090565b600160205281600052604060002081815481106103d857fe5b906000526020600020906002020160009150915050806000018054600181600116156101000203166002900480601f0160208091040260200160405190810160405280929190818152602001828054600181600116156101000203166002900480156104855780601f1061045a57610100808354040283529160200191610485565b820191906000526020600020905b81548152906001019060200180831161046857829003601f168201915b5050505050908060010160009054906101000a900473ffffffffffffffffffffffffffffffffffffffff16905082565b6000809054906101000a900460ff1615610537576040517f08c379a00000000000000000000000000000000000000000000000000000000081526004018080602001828103825260108152602001807f5061757361626c653a207061757365640000000000000000000000000000000081525060200191505060405180910390fd5b60016000806101000a81548160ff0219169083151502179055507f62e78cea01bee320cd4e420270b5ea74000d11b0c9f74754ebdbfc544b05a25833604051808273ffffffffffffffffffffffffffffffffffffffff1673ffffffffffffffffffffffffffffffffffffffff16815260200191505060405180910390a1565b6000809054906101000a900460ff1615610638576040517f08c379a00000000000000000000000000000000000000000000000000000000081526004018080602001828103825260108152602001807f5061757361626c653a207061757365640000000000000000000000000000000081525060200191505060405180910390fd5b5050565b6000809054906101000a900460ff16156106be576040517f08c379a00000000000000000000000000000000000000000000000000000000081526004018080602001828103825260108152602001807f5061757361626c653a207061757365640000000000000000000000000000000081525060200191505060405180910390fd5b50505056fea165627a7a72305820d66630cb79e7b37009b7bd2e037d7df6914fa6984bfe02d3dd9488793dcac4e60029",
  "source": "pragma solidity >=0.5.8 <=0.5.11;\r\n\r\nimport \"./Pausable.sol\";\r\nimport \"./IUserIdentity.sol\";\r\n\r\n/**\r\n * @dev UserIdentity implements basic functions for managing user identity\r\n */\r\ncontract UserIdentity is IUserIdentity, Pausable {\r\n    struct Identity {\r\n        string ipfsHash;\r\n        address identityProvider;\r\n    }\r\n\r\n    mapping(address => Identity[]) public userIdentities;\r\n\r\n    event AddIdentity(address, string, address);\r\n    event RemoveIdentity(address, string, address);\r\n\r\n    function addIdentity(string calldata _ipfsHash, address _identityProvider) external whenNotPaused {}\r\n\r\n    function removeIdentity(string calldata _ipfsHash) external whenNotPaused {}\r\n}",
  "sourcePath": "D:/Facultate/MASTER/TAIP/TAIP-NaturallyDigital/Ethereum/contracts/UserIdentity.sol",
  "compiler": {
    "name": "solc",
    "version": "0.5.8+commit.23d335f2.Emscripten.clang"
  },
  "schemaVersion": "3.0.16",
  "updatedAt": "2019-10-25T19:56:59.419Z",
  "devdoc": {
    "details": "UserIdentity implements basic functions for managing user identity\r",
    "methods": {
      "pause()": {
        "details": "Called by a pauser to pause, triggers stopped state.\r"
      },
      "paused()": {
        "details": "Returns true if the contract is paused, and false otherwise.\r"
      },
      "unpause()": {
        "details": "Called by a pauser to unpause, returns to normal state.\r"
      }
    }
  },
  "userdoc": {
    "methods": {}
  }
}