{
  "contractName": "UserIdentityProxy",
  "abi": [
    {
      "payable": true,
      "stateMutability": "payable",
      "type": "fallback"
    },
    {
      "constant": true,
      "inputs": [],
      "name": "implementation",
      "outputs": [
        {
          "internalType": "address",
          "name": "impl",
          "type": "address"
        }
      ],
      "payable": false,
      "stateMutability": "view",
      "type": "function"
    },
    {
      "constant": true,
      "inputs": [],
      "name": "proxyOwner",
      "outputs": [
        {
          "internalType": "address",
          "name": "owner",
          "type": "address"
        }
      ],
      "payable": false,
      "stateMutability": "view",
      "type": "function"
    },
    {
      "constant": false,
      "inputs": [
        {
          "internalType": "address",
          "name": "_newOwner",
          "type": "address"
        }
      ],
      "name": "transferProxyOwnership",
      "outputs": [],
      "payable": false,
      "stateMutability": "nonpayable",
      "type": "function"
    },
    {
      "constant": false,
      "inputs": [
        {
          "internalType": "address",
          "name": "_implementation",
          "type": "address"
        }
      ],
      "name": "upgradeTo",
      "outputs": [],
      "payable": false,
      "stateMutability": "nonpayable",
      "type": "function"
    }
  ],
  "bytecode": "0x6080604052610016336001600160e01b0361001b16565b610050565b604080517f6e61747572616c6c796469676974616c2e70726f78792e6f776e6572000000008152905190819003601c01902055565b6104698061005f6000396000f3fe60806040526004361061003f5760003560e01c8063025313a2146100cb5780633659cfe6146100fc5780635c60da1b14610131578063f1739cae14610146575b6000610049610179565b90506001600160a01b0381166100a6576040805162461bcd60e51b815260206004820152601f60248201527f496e76616c696420696d706c656d656e746174696f6e20616464726573737300604482015290519081900360640190fd5b60405136600082376000803683855af43d806000843e8180156100c7578184f35b8184fd5b3480156100d757600080fd5b506100e061019c565b604080516001600160a01b039092168252519081900360200190f35b34801561010857600080fd5b5061012f6004803603602081101561011f57600080fd5b50356001600160a01b03166101d2565b005b34801561013d57600080fd5b506100e0610179565b34801561015257600080fd5b5061012f6004803603602081101561016957600080fd5b50356001600160a01b0316610235565b600080604051808061040e60279139604051908190036027019020549392505050565b604080517f6e61747572616c6c796469676974616c2e70726f78792e6f776e6572000000008152905190819003601c0190205490565b6101da61019c565b6001600160a01b0316336001600160a01b0316146102295760405162461bcd60e51b815260040180806020018281038252602e8152602001806103e0602e913960400191505060405180910390fd5b610232816102f0565b50565b61023d61019c565b6001600160a01b0316336001600160a01b03161461028c5760405162461bcd60e51b815260040180806020018281038252602e8152602001806103e0602e913960400191505060405180910390fd5b6001600160a01b0381166102e7576040805162461bcd60e51b815260206004820152601f60248201527f496e76616c6964206e65772070726f7879206f776e6572206164647265737300604482015290519081900360640190fd5b6102328161035a565b60006102fa610179565b9050816001600160a01b0316816001600160a01b0316141561034d5760405162461bcd60e51b815260040180806020018281038252602e8152602001806103b2602e913960400191505060405180910390fd5b6103568261038f565b5050565b604080517f6e61747572616c6c796469676974616c2e70726f78792e6f776e6572000000008152905190819003601c01902055565b6000604051808061040e6027913960405190819003602701902092909255505056fe4e657720696d706c656d656e746174696f6e20616464726573732073686f756c6420626520646966666572656e7441636365737320636f6e74726f6c207265737472696374696f6e206f6e6c7920746f2070726f7879206f776e65726e61747572616c6c796469676974616c2e696d706c656d656e746174696f6e2e61646472657373a265627a7a7231582034a2a85449798ac19d72bdc56fc4a38c7ca8fba087708cad2cbac83f6517c98864736f6c634300050c0032",
  "source": "pragma solidity >=0.5.8 <=0.5.12;\r\n\r\nimport \"./Proxy.sol\";\r\n\r\n/**\r\n * @dev Proxy for user identity logic and storage\r\n */\r\ncontract UserIdentityProxy is Proxy {}",
  "sourcePath": "D:/Facultate/MASTER/TAIP/TAIP-NaturallyDigital/Ethereum/contracts/UserIdentityProxy.sol",
  "compiler": {
    "name": "solc",
    "version": "0.5.12+commit.7709ece9.Emscripten.clang"
  },
  "schemaVersion": "3.0.16",
  "updatedAt": "2019-12-04T06:30:03.068Z",
  "devdoc": {
    "details": "Proxy for user identity logic and storage",
    "methods": {
      "implementation()": {
        "details": "Tells the address of the current implementation",
        "return": "address of the current implementation"
      },
      "proxyOwner()": {
        "details": "Tells the address of the owner",
        "return": "the address of the owner"
      },
      "transferProxyOwnership(address)": {
        "details": "Allows the current owner to transfer ownership",
        "params": {
          "_newOwner": "The address to transfer ownership to"
        }
      },
      "upgradeTo(address)": {
        "details": "Allows the proxy owner to upgrade the implementation",
        "params": {
          "_implementation": "address of the new implementation"
        }
      }
    }
  },
  "userdoc": {
    "methods": {}
  }
}