{
  "contractName": "UserIdentityProxy",
  "abi": [
    {
      "inputs": [],
      "payable": false,
      "stateMutability": "nonpayable",
      "type": "constructor"
    },
    {
      "payable": true,
      "stateMutability": "payable",
      "type": "fallback"
    },
    {
      "constant": false,
      "inputs": [
        {
          "name": "_newOwner",
          "type": "address"
        }
      ],
      "name": "transferProxyOwnership",
      "outputs": [],
      "payable": false,
      "stateMutability": "nonpayable",
      "type": "function"
    },
    {
      "constant": false,
      "inputs": [
        {
          "name": "_implementation",
          "type": "address"
        }
      ],
      "name": "upgradeTo",
      "outputs": [],
      "payable": false,
      "stateMutability": "nonpayable",
      "type": "function"
    },
    {
      "constant": true,
      "inputs": [],
      "name": "implementation",
      "outputs": [
        {
          "name": "impl",
          "type": "address"
        }
      ],
      "payable": false,
      "stateMutability": "view",
      "type": "function"
    },
    {
      "constant": true,
      "inputs": [],
      "name": "proxyOwner",
      "outputs": [
        {
          "name": "owner",
          "type": "address"
        }
      ],
      "payable": false,
      "stateMutability": "view",
      "type": "function"
    }
  ],
  "bytecode": "0x608060405234801561001057600080fd5b506100203361002560201b60201c565b610066565b600060405180807f6e61747572616c6c796469676974616c2e70726f78792e6f776e657200000000815250601c019050604051809103902090508181555050565b610651806100756000396000f3fe60806040526004361061003f5760003560e01c8063025313a2146101155780633659cfe61461016c5780635c60da1b146101bd578063f1739cae14610214575b6000610049610265565b9050600073ffffffffffffffffffffffffffffffffffffffff168173ffffffffffffffffffffffffffffffffffffffff1614156100ee576040517f08c379a000000000000000000000000000000000000000000000000000000000815260040180806020018281038252601f8152602001807f496e76616c696420696d706c656d656e746174696f6e2061646472657373730081525060200191505060405180910390fd5b60405136600082376000803683855af43d806000843e8160008114610111578184f35b8184fd5b34801561012157600080fd5b5061012a61028b565b604051808273ffffffffffffffffffffffffffffffffffffffff1673ffffffffffffffffffffffffffffffffffffffff16815260200191505060405180910390f35b34801561017857600080fd5b506101bb6004803603602081101561018f57600080fd5b81019080803573ffffffffffffffffffffffffffffffffffffffff1690602001909291905050506102ce565b005b3480156101c957600080fd5b506101d2610265565b604051808273ffffffffffffffffffffffffffffffffffffffff1673ffffffffffffffffffffffffffffffffffffffff16815260200191505060405180910390f35b34801561022057600080fd5b506102636004803603602081101561023757600080fd5b81019080803573ffffffffffffffffffffffffffffffffffffffff169060200190929190505050610365565b005b60008060405180806105ff60279139602701905060405180910390209050805491505090565b60008060405180807f6e61747572616c6c796469676974616c2e70726f78792e6f776e657200000000815250601c01905060405180910390209050805491505090565b6102d661028b565b73ffffffffffffffffffffffffffffffffffffffff163373ffffffffffffffffffffffffffffffffffffffff1614610359576040517f08c379a000000000000000000000000000000000000000000000000000000000815260040180806020018281038252602e8152602001806105d1602e913960400191505060405180910390fd5b6103628161049f565b50565b61036d61028b565b73ffffffffffffffffffffffffffffffffffffffff163373ffffffffffffffffffffffffffffffffffffffff16146103f0576040517f08c379a000000000000000000000000000000000000000000000000000000000815260040180806020018281038252602e8152602001806105d1602e913960400191505060405180910390fd5b600073ffffffffffffffffffffffffffffffffffffffff168173ffffffffffffffffffffffffffffffffffffffff161415610493576040517f08c379a000000000000000000000000000000000000000000000000000000000815260040180806020018281038252601f8152602001807f496e76616c6964206e65772070726f7879206f776e657220616464726573730081525060200191505060405180910390fd5b61049c8161053d565b50565b60006104a9610265565b90508173ffffffffffffffffffffffffffffffffffffffff168173ffffffffffffffffffffffffffffffffffffffff161415610530576040517f08c379a000000000000000000000000000000000000000000000000000000000815260040180806020018281038252602e8152602001806105a3602e913960400191505060405180910390fd5b6105398261057e565b5050565b600060405180807f6e61747572616c6c796469676974616c2e70726f78792e6f776e657200000000815250601c019050604051809103902090508181555050565b600060405180806105ff60279139602701905060405180910390209050818155505056fe4e657720696d706c656d656e746174696f6e20616464726573732073686f756c6420626520646966666572656e7441636365737320636f6e74726f6c207265737472696374696f6e206f6e6c7920746f2070726f7879206f776e65726e61747572616c6c796469676974616c2e696d706c656d656e746174696f6e2e61646472657373a165627a7a72305820f7fdc163d8225ddad44bf12c84bca11a70305d7f9ebd18ea3751e9660c27b6290029",
  "source": "pragma solidity >=0.5.8 <=0.5.11;\r\n\r\n/**\r\n * @dev Implements unstructured storage proxy pattern\r\n */\r\ncontract UserIdentityProxy {\r\n\r\n    // Storage position of the address of the current implementation\r\n    bytes32 private constant implementationPosition =\r\n        keccak256(\"naturallydigital.implementation.address\");\r\n\r\n    // Storage position of the owner of the contract\r\n    bytes32 private constant proxyOwnerPosition =\r\n        keccak256(\"naturallydigital.proxy.owner\");\r\n\r\n    /**\r\n    * @dev Throws if called by any account other than the owner.\r\n    */\r\n    modifier onlyProxyOwner() {\r\n        require (msg.sender == proxyOwner(), \"Access control restriction only to proxy owner\");\r\n        _;\r\n    }\r\n\r\n    /**\r\n    * @dev the constructor sets owner\r\n    */\r\n    constructor() public {\r\n        _setUpgradeabilityOwner(msg.sender);\r\n    }\r\n\r\n    /**\r\n     * @dev Allows the current owner to transfer ownership\r\n     * @param _newOwner The address to transfer ownership to\r\n     */\r\n    function transferProxyOwnership(address _newOwner)\r\n        public onlyProxyOwner\r\n    {\r\n        require(_newOwner != address(0), \"Invalid new proxy owner address\");\r\n        _setUpgradeabilityOwner(_newOwner);\r\n    }\r\n\r\n    /**\r\n     * @dev Allows the proxy owner to upgrade the implementation\r\n     * @param _implementation address of the new implementation\r\n     */\r\n    function upgradeTo(address _implementation)\r\n        public onlyProxyOwner\r\n    {\r\n        _upgradeTo(_implementation);\r\n    }\r\n\r\n    /**\r\n     * @dev Tells the address of the current implementation\r\n     * @return address of the current implementation\r\n     */\r\n    function implementation() public view returns (address impl) {\r\n        bytes32 position = implementationPosition;\r\n        assembly {\r\n            impl := sload(position)\r\n        }\r\n    }\r\n\r\n    /**\r\n     * @dev Tells the address of the owner\r\n     * @return the address of the owner\r\n     */\r\n    function proxyOwner() public view returns (address owner) {\r\n        bytes32 position = proxyOwnerPosition;\r\n        assembly {\r\n            owner := sload(position)\r\n        }\r\n    }\r\n\r\n    /**\r\n     * @dev Sets the address of the current implementation\r\n     * @param _newImplementation address of the new implementation\r\n     */\r\n    function _setImplementation(address _newImplementation)\r\n        internal\r\n    {\r\n        bytes32 position = implementationPosition;\r\n        assembly {\r\n            sstore(position, _newImplementation)\r\n        }\r\n    }\r\n\r\n    /**\r\n     * @dev Upgrades the implementation address\r\n     * @param _newImplementation address of the new implementation\r\n     */\r\n    function _upgradeTo(address _newImplementation) internal {\r\n        address currentImplementation = implementation();\r\n        require(currentImplementation != _newImplementation, \"New implementation address should be different\");\r\n        _setImplementation(_newImplementation);\r\n    }\r\n\r\n    /**\r\n     * @dev Sets the address of the owner\r\n     */\r\n    function _setUpgradeabilityOwner(address _newProxyOwner)\r\n        internal\r\n    {\r\n        bytes32 position = proxyOwnerPosition;\r\n        assembly {\r\n            sstore(position, _newProxyOwner)\r\n        }\r\n    }\r\n\r\n    /**\r\n    * @dev Fallback function allowing to perform a delegatecall to the given implementation.\r\n    * This function will return whatever the implementation call returns\r\n    */\r\n    function () payable external {\r\n        address _impl = implementation();\r\n        require(_impl != address(0), \"Invalid implementation addresss\");\r\n\r\n        assembly {\r\n        let ptr := mload(0x40)\r\n        calldatacopy(ptr, 0, calldatasize)\r\n        let result := delegatecall(gas, _impl, ptr, calldatasize, 0, 0)\r\n        let size := returndatasize\r\n        returndatacopy(ptr, 0, size)\r\n\r\n        switch result\r\n        case 0 { revert(ptr, size) }\r\n        default { return(ptr, size) }\r\n        }\r\n    }\r\n}",
  "sourcePath": "D:/Facultate/MASTER/TAIP/TAIP-NaturallyDigital/Ethereum/contracts/UserIdentityProxy.sol",
  "compiler": {
    "name": "solc",
    "version": "0.5.8+commit.23d335f2.Emscripten.clang"
  },
  "schemaVersion": "3.0.16",
  "updatedAt": "2019-10-25T19:56:59.422Z",
  "devdoc": {
    "details": "Implements unstructured storage proxy pattern\r",
    "methods": {
      "constructor": {
        "details": "the constructor sets owner\r"
      },
      "implementation()": {
        "details": "Tells the address of the current implementation\r",
        "return": "address of the current implementation\r"
      },
      "proxyOwner()": {
        "details": "Tells the address of the owner\r",
        "return": "the address of the owner\r"
      },
      "transferProxyOwnership(address)": {
        "details": "Allows the current owner to transfer ownership\r",
        "params": {
          "_newOwner": "The address to transfer ownership to\r"
        }
      },
      "upgradeTo(address)": {
        "details": "Allows the proxy owner to upgrade the implementation\r",
        "params": {
          "_implementation": "address of the new implementation\r"
        }
      }
    }
  },
  "userdoc": {
    "methods": {}
  }
}