{
  "contractName": "UserIdentity",
  "abi": [
    {
      "anonymous": false,
      "inputs": [
        {
          "indexed": false,
          "internalType": "uint256",
          "name": "id",
          "type": "uint256"
        },
        {
          "indexed": false,
          "internalType": "address",
          "name": "user",
          "type": "address"
        },
        {
          "indexed": false,
          "internalType": "string",
          "name": "ipfsHash",
          "type": "string"
        },
        {
          "indexed": false,
          "internalType": "address",
          "name": "identityProvider",
          "type": "address"
        }
      ],
      "name": "AddIdentity",
      "type": "event"
    },
    {
      "anonymous": false,
      "inputs": [
        {
          "indexed": false,
          "internalType": "address",
          "name": "user",
          "type": "address"
        },
        {
          "indexed": false,
          "internalType": "string",
          "name": "userDataHash",
          "type": "string"
        },
        {
          "indexed": false,
          "internalType": "address",
          "name": "IP",
          "type": "address"
        }
      ],
      "name": "AddIdentity",
      "type": "event"
    },
    {
      "anonymous": false,
      "inputs": [
        {
          "indexed": false,
          "internalType": "address",
          "name": "account",
          "type": "address"
        }
      ],
      "name": "Paused",
      "type": "event"
    },
    {
      "anonymous": false,
      "inputs": [
        {
          "indexed": false,
          "internalType": "address",
          "name": "user",
          "type": "address"
        },
        {
          "indexed": false,
          "internalType": "string",
          "name": "ipfsHash",
          "type": "string"
        },
        {
          "indexed": false,
          "internalType": "address",
          "name": "identityProvider",
          "type": "address"
        }
      ],
      "name": "RemoveIdentity",
      "type": "event"
    },
    {
      "anonymous": false,
      "inputs": [
        {
          "indexed": false,
          "internalType": "address",
          "name": "account",
          "type": "address"
        }
      ],
      "name": "Unpaused",
      "type": "event"
    },
    {
      "anonymous": false,
      "inputs": [
        {
          "indexed": false,
          "internalType": "address",
          "name": "ipContract",
          "type": "address"
        }
      ],
      "name": "UpdateIdentityProviderContact",
      "type": "event"
    },
    {
      "constant": true,
      "inputs": [],
      "name": "owner",
      "outputs": [
        {
          "internalType": "address",
          "name": "",
          "type": "address"
        }
      ],
      "payable": false,
      "stateMutability": "view",
      "type": "function"
    },
    {
      "constant": false,
      "inputs": [],
      "name": "pause",
      "outputs": [],
      "payable": false,
      "stateMutability": "nonpayable",
      "type": "function"
    },
    {
      "constant": true,
      "inputs": [],
      "name": "paused",
      "outputs": [
        {
          "internalType": "bool",
          "name": "",
          "type": "bool"
        }
      ],
      "payable": false,
      "stateMutability": "view",
      "type": "function"
    },
    {
      "constant": false,
      "inputs": [
        {
          "internalType": "address",
          "name": "newOwner",
          "type": "address"
        }
      ],
      "name": "transferOwnership",
      "outputs": [],
      "payable": false,
      "stateMutability": "nonpayable",
      "type": "function"
    },
    {
      "constant": false,
      "inputs": [],
      "name": "unpause",
      "outputs": [],
      "payable": false,
      "stateMutability": "nonpayable",
      "type": "function"
    },
    {
      "constant": false,
      "inputs": [
        {
          "internalType": "string",
          "name": "_ipfsHash",
          "type": "string"
        },
        {
          "internalType": "address",
          "name": "_identityProvider",
          "type": "address"
        }
      ],
      "name": "addIdentity",
      "outputs": [
        {
          "internalType": "uint256",
          "name": "",
          "type": "uint256"
        }
      ],
      "payable": false,
      "stateMutability": "nonpayable",
      "type": "function"
    },
    {
      "constant": false,
      "inputs": [
        {
          "internalType": "uint256",
          "name": "index",
          "type": "uint256"
        }
      ],
      "name": "removeIdentity",
      "outputs": [],
      "payable": false,
      "stateMutability": "nonpayable",
      "type": "function"
    },
    {
      "constant": false,
      "inputs": [
        {
          "internalType": "address",
          "name": "_identityProviderContract",
          "type": "address"
        }
      ],
      "name": "setIdentityProvider",
      "outputs": [],
      "payable": false,
      "stateMutability": "nonpayable",
      "type": "function"
    },
    {
      "constant": true,
      "inputs": [
        {
          "internalType": "address",
          "name": "_user",
          "type": "address"
        },
        {
          "internalType": "uint256",
          "name": "_index",
          "type": "uint256"
        }
      ],
      "name": "getUserIdentity",
      "outputs": [
        {
          "internalType": "string",
          "name": "ipfsHash",
          "type": "string"
        },
        {
          "internalType": "address",
          "name": "identityProviderReference",
          "type": "address"
        }
      ],
      "payable": false,
      "stateMutability": "view",
      "type": "function"
    },
    {
      "constant": true,
      "inputs": [
        {
          "internalType": "address",
          "name": "_user",
          "type": "address"
        }
      ],
      "name": "getUserIdentityNumber",
      "outputs": [
        {
          "internalType": "uint256",
          "name": "",
          "type": "uint256"
        }
      ],
      "payable": false,
      "stateMutability": "view",
      "type": "function"
    }
  ],
  "bytecode": "0x60806040526000805460ff60a01b196001600160a01b03199091163317169055610fde8061002e6000396000f3fe608060405234801561001057600080fd5b506004361061009e5760003560e01c80638456cb59116100665780638456cb59146101445780638da5cb5b1461014c578063f0113b4814610170578063f108fd2c146101e9578063f2fde38b146102a65761009e565b806305a29895146100a35780631dc4a2e2146100cb578063331cca21146101035780633f4ba83a146101205780635c975abb14610128575b600080fd5b6100c9600480360360208110156100b957600080fd5b50356001600160a01b03166102cc565b005b6100f1600480360360208110156100e157600080fd5b50356001600160a01b03166103c3565b60408051918252519081900360200190f35b6100c96004803603602081101561011957600080fd5b50356103d4565b6100c9610683565b61013061076e565b604080519115158252519081900360200190f35b6100c961077f565b61015461086d565b604080516001600160a01b039092168252519081900360200190f35b6100f16004803603604081101561018657600080fd5b8101906020810181356401000000008111156101a157600080fd5b8201836020820111156101b357600080fd5b803590602001918460018302840111640100000000831117156101d557600080fd5b9193509150356001600160a01b031661087c565b610215600480360360408110156101ff57600080fd5b506001600160a01b038135169060200135610b12565b6040518080602001836001600160a01b03166001600160a01b03168152602001828103825284818151815260200191508051906020019080838360005b8381101561026a578181015183820152602001610252565b50505050905090810190601f1680156102975780820380516001836020036101000a031916815260200191505b50935050505060405180910390f35b6100c9600480360360208110156102bc57600080fd5b50356001600160a01b0316610c74565b6000546001600160a01b03163314610320576040805162461bcd60e51b815260206004820152601260248201527127b7363c9037bbb732b91030b1b1b2b9b99760711b604482015290519081900360640190fd5b6001600160a01b0381166103655760405162461bcd60e51b815260040180806020018281038252602f815260200180610f7b602f913960400191505060405180910390fd5b604080516001600160a01b038316815290517fd953e12934184658f7ac0d87a9b730154d254bc03af8b38d30737924996b9a0c9181900360200190a1600280546001600160a01b0319166001600160a01b0392909216919091179055565b60006103ce82610d45565b92915050565b600054600160a01b900460ff1615610426576040805162461bcd60e51b815260206004820152601060248201526f14185d5cd8589b194e881c185d5cd95960821b604482015290519081900360640190fd5b600061043133610d45565b9050808210610477576040805162461bcd60e51b815260206004820152600d60248201526c092dcecc2d8d2c840d2dcc8caf609b1b604482015290519081900360640190fd5b33600081815260016020526040902080547fabca378e8f171a694e831dcb74f877ae039e20fad1804d3fbf39284ecc1deb13929190859081106104b657fe5b6000918252602080832033845260019091526040909220805460029092029092019190869081106104e357fe5b6000918252602091829020600291820201600190810154604080516001600160a01b038881168252909216908201819052606094820185815286546101009481161594909402600019019093169390930493810184905291926080830190859080156105905780601f1061056557610100808354040283529160200191610590565b820191906000526020600020905b81548152906001019060200180831161057357829003601f168201915b505094505050505060405180910390a1600181111561065e57336000908152600160205260409020805460001983019081106105c857fe5b906000526020600020906002020160016000336001600160a01b03166001600160a01b03168152602001908152602001600020838154811061060657fe5b6000918252602090912082546002928302909101916106379183918591600019610100600183161502011604610d60565b50600191820154910180546001600160a01b0319166001600160a01b039092169190911790555b33600090815260016020526040902080549061067e906000198301610de5565b505050565b600054600160a01b900460ff166106d8576040805162461bcd60e51b815260206004820152601460248201527314185d5cd8589b194e881b9bdd081c185d5cd95960621b604482015290519081900360640190fd5b6000546001600160a01b0316331461072c576040805162461bcd60e51b815260206004820152601260248201527127b7363c9037bbb732b91030b1b1b2b9b99760711b604482015290519081900360640190fd5b6000805460ff60a01b191690556040805133815290517f5db9ee0a495bf2e6ff9c91a7834c1ba4fdd244a5e8aa4e537bd38aeae4b073aa9181900360200190a1565b600054600160a01b900460ff165b90565b600054600160a01b900460ff16156107d1576040805162461bcd60e51b815260206004820152601060248201526f14185d5cd8589b194e881c185d5cd95960821b604482015290519081900360640190fd5b6000546001600160a01b03163314610825576040805162461bcd60e51b815260206004820152601260248201527127b7363c9037bbb732b91030b1b1b2b9b99760711b604482015290519081900360640190fd5b6000805460ff60a01b1916600160a01b1790556040805133815290517f62e78cea01bee320cd4e420270b5ea74000d11b0c9f74754ebdbfc544b05a2589181900360200190a1565b6000546001600160a01b031681565b60008054600160a01b900460ff16156108cf576040805162461bcd60e51b815260206004820152601060248201526f14185d5cd8589b194e881c185d5cd95960821b604482015290519081900360640190fd5b6001600160a01b0382166109145760405162461bcd60e51b8152600401808060200182810382526026815260200180610f2e6026913960400191505060405180910390fd5b6002546040805163e09c0a0360e01b81526001600160a01b0385811660048301529151919092169163e09c0a03916024808301926020929190829003018186803b15801561096157600080fd5b505afa158015610975573d6000803e3d6000fd5b505050506040513d602081101561098b57600080fd5b5051156109c95760405162461bcd60e51b8152600401808060200182810382526027815260200180610f546027913960400191505060405180910390fd5b6109d1610e11565b6040805160606020601f8801819004028201810183529181018681529091829190889088908190850183828082843760009201829052509385525050506001600160a01b0386166020928301523381526001808352604082208054808301808355918452848420865180519798509496939592948894600290930290910192610a5f92849290910190610e29565b5060209182015160019190910180546001600160a01b0319166001600160a01b039283161790556040805194909303808552339285018390529088166060850152608092840183815292840189905293507f55f2912a3f979c05cf5175ee79efb35228ac6068dd5d4eb7071f723c91fba5629284928a918a918a919060a08201858580828437600083820152604051601f909101601f19169092018290039850909650505050505050a195945050505050565b6060600080610b2085610d45565b9050808410610b66576040805162461bcd60e51b815260206004820152600d60248201526c092dcecc2d8d2c840d2dcc8caf609b1b604482015290519081900360640190fd5b6001600160a01b0385166000908152600160205260409020805485908110610b8a57fe5b60009182526020918290206002918202018054604080516001831615610100026000190190921693909304601f810185900485028201850190935282815292909190830182828015610c1d5780601f10610bf257610100808354040283529160200191610c1d565b820191906000526020600020905b815481529060010190602001808311610c0057829003601f168201915b505050506001600160a01b03871660009081526001602052604090208054929550918691508110610c4a57fe5b600091825260209091206001600290920201015492956001600160a01b0390931694509192505050565b6000546001600160a01b03163314610cc8576040805162461bcd60e51b815260206004820152601260248201527127b7363c9037bbb732b91030b1b1b2b9b99760711b604482015290519081900360640190fd5b6001600160a01b038116610d23576040805162461bcd60e51b815260206004820152601960248201527f4164647265737320302063616e6e6f74206265206f776e657200000000000000604482015290519081900360640190fd5b600080546001600160a01b0319166001600160a01b0392909216919091179055565b6001600160a01b031660009081526001602052604090205490565b828054600181600116156101000203166002900490600052602060002090601f016020900481019282601f10610d995780548555610dd5565b82800160010185558215610dd557600052602060002091601f016020900482015b82811115610dd5578254825591600101919060010190610dba565b50610de1929150610e97565b5090565b81548183558181111561067e5760020281600202836000526020600020918201910161067e9190610eb1565b60408051808201909152606081526000602082015290565b828054600181600116156101000203166002900490600052602060002090601f016020900481019282601f10610e6a57805160ff1916838001178555610dd5565b82800160010185558215610dd5579182015b82811115610dd5578251825591602001919060010190610e7c565b61077c91905b80821115610de15760008155600101610e9d565b61077c91905b80821115610de1576000610ecb8282610ee6565b506001810180546001600160a01b0319169055600201610eb7565b50805460018160011615610100020316600290046000825580601f10610f0c5750610f2a565b601f016020900490600052602060002090810190610f2a9190610e97565b5056fe496e76616c6964206964656e746974792070726f7669646572202d2061646472657373283029496e76616c6964206964656e746974792070726f7669646572202d206e6f742063726561746564496e76616c6964206964656e746974792070726f766964657220636f6e7472616374202d2061646472657373283029a265627a7a723158208a3478d05c9854b4217efd462beb02861c3fa386f73194efa2758921c3aaa59a64736f6c634300050c0032",
  "source": "pragma solidity >=0.5.8 <=0.5.12;\r\n\r\nimport \"./Pausable.sol\";\r\nimport \"./IUserIdentity.sol\";\r\nimport \"./IdentityProvider.sol\";\r\n\r\n/**\r\n * @dev UserIdentity implements basic functions for managing user identity\r\n */\r\ncontract UserIdentity is IUserIdentity, Pausable {\r\n    struct Identity {\r\n        string ipfsHash;\r\n        address identityProvider;\r\n    }\r\n\r\n    mapping(address => Identity[]) private userIdentities;\r\n\r\n    IdentityProvider private identityProvider;\r\n\r\n    event AddIdentity(uint id, address user, string ipfsHash, address identityProvider);\r\n    event RemoveIdentity(address user, string ipfsHash, address identityProvider);\r\n    event UpdateIdentityProviderContact(address ipContract);\r\n\r\n    function addIdentity(string calldata _ipfsHash, address _identityProvider) external whenNotPaused returns (uint) {\r\n        require(_identityProvider != address(0), \"Invalid identity provider - address(0)\");\r\n        require(!identityProvider.isIdentityProviderCreated(_identityProvider), \"Invalid identity provider - not created\");\r\n\r\n        Identity memory identity = Identity({ipfsHash: _ipfsHash, identityProvider: _identityProvider});\r\n        uint id = userIdentities[msg.sender].push(identity) - 1;\r\n        emit AddIdentity(id, msg.sender, _ipfsHash, _identityProvider);\r\n        return id;\r\n    }\r\n\r\n    function removeIdentity(uint index) external whenNotPaused {\r\n        uint length = _userIdentityNumber(msg.sender);\r\n        require(index >= 0 && index < length, \"Invalid index\");\r\n\r\n        emit RemoveIdentity(msg.sender, userIdentities[msg.sender][index].ipfsHash, userIdentities[msg.sender][index].identityProvider);\r\n        if(length > 1) {\r\n            userIdentities[msg.sender][index] = userIdentities[msg.sender][length - 1];\r\n        }\r\n        userIdentities[msg.sender].length--;\r\n    }\r\n\r\n    function setIdentityProvider(address _identityProviderContract) external onlyOwner {\r\n        require(_identityProviderContract != address(0), \"Invalid identity provider contract - address(0)\");\r\n\r\n        emit UpdateIdentityProviderContact(_identityProviderContract);\r\n        identityProvider = IdentityProvider(_identityProviderContract);\r\n    }\r\n\r\n    function getUserIdentity(address _user, uint _index) external view returns (string memory ipfsHash, address identityProviderReference) {\r\n        uint length = _userIdentityNumber(_user);\r\n        require(_index >= 0 && _index < length, \"Invalid index\");\r\n\r\n        ipfsHash = userIdentities[_user][_index].ipfsHash;\r\n        identityProviderReference = userIdentities[_user][_index].identityProvider;\r\n    }\r\n\r\n    function getUserIdentityNumber(address _user) external view returns(uint) {\r\n        return _userIdentityNumber(_user);\r\n    }\r\n\r\n    function _userIdentityNumber(address _user) internal view returns(uint) {\r\n        return userIdentities[_user].length;\r\n    }\r\n}",
  "sourcePath": "D:/Facultate/MASTER/TAIP/TAIP-NaturallyDigital/Ethereum/contracts/UserIdentity.sol",
  "compiler": {
    "name": "solc",
    "version": "0.5.12+commit.7709ece9.Emscripten.clang"
  },
  "schemaVersion": "3.0.16",
  "updatedAt": "2019-11-12T20:47:11.968Z",
  "devdoc": {
    "details": "UserIdentity implements basic functions for managing user identity",
    "methods": {
      "pause()": {
        "details": "Called by a pauser to pause, triggers stopped state."
      },
      "paused()": {
        "details": "Returns true if the contract is paused, and false otherwise."
      },
      "unpause()": {
        "details": "Called by a pauser to unpause, returns to normal state."
      }
    }
  },
  "userdoc": {
    "methods": {}
  }
}